{
  "contractName": "SolnSquareVerifier",
  "abi": [
    {
      "inputs": [
        {
          "internalType": "address",
          "name": "contractAddress",
          "type": "address"
        },
        {
          "internalType": "string",
          "name": "name",
          "type": "string"
        },
        {
          "internalType": "string",
          "name": "symbol",
          "type": "string"
        }
      ],
      "payable": false,
      "stateMutability": "nonpayable",
      "type": "constructor"
    },
    {
      "anonymous": false,
      "inputs": [
        {
          "indexed": true,
          "internalType": "address",
          "name": "owner",
          "type": "address"
        },
        {
          "indexed": true,
          "internalType": "address",
          "name": "approved",
          "type": "address"
        },
        {
          "indexed": true,
          "internalType": "uint256",
          "name": "tokenId",
          "type": "uint256"
        }
      ],
      "name": "Approval",
      "type": "event"
    },
    {
      "anonymous": false,
      "inputs": [
        {
          "indexed": true,
          "internalType": "address",
          "name": "owner",
          "type": "address"
        },
        {
          "indexed": true,
          "internalType": "address",
          "name": "operator",
          "type": "address"
        },
        {
          "indexed": false,
          "internalType": "bool",
          "name": "approved",
          "type": "bool"
        }
      ],
      "name": "ApprovalForAll",
      "type": "event"
    },
    {
      "anonymous": false,
      "inputs": [
        {
          "indexed": false,
          "internalType": "address",
          "name": "newOwner",
          "type": "address"
        }
      ],
      "name": "NewOwnerRegistered",
      "type": "event"
    },
    {
      "anonymous": false,
      "inputs": [
        {
          "indexed": false,
          "internalType": "address",
          "name": "account",
          "type": "address"
        }
      ],
      "name": "Paused",
      "type": "event"
    },
    {
      "anonymous": false,
      "inputs": [
        {
          "indexed": false,
          "internalType": "address",
          "name": "solutionAddress",
          "type": "address"
        },
        {
          "indexed": false,
          "internalType": "uint256",
          "name": "solutionIndex",
          "type": "uint256"
        }
      ],
      "name": "SolutionAdded",
      "type": "event"
    },
    {
      "anonymous": false,
      "inputs": [
        {
          "indexed": true,
          "internalType": "address",
          "name": "from",
          "type": "address"
        },
        {
          "indexed": true,
          "internalType": "address",
          "name": "to",
          "type": "address"
        },
        {
          "indexed": true,
          "internalType": "uint256",
          "name": "tokenId",
          "type": "uint256"
        }
      ],
      "name": "Transfer",
      "type": "event"
    },
    {
      "anonymous": false,
      "inputs": [
        {
          "indexed": false,
          "internalType": "address",
          "name": "account",
          "type": "address"
        }
      ],
      "name": "Unpaused",
      "type": "event"
    },
    {
      "constant": false,
      "inputs": [
        {
          "internalType": "bytes32",
          "name": "_myid",
          "type": "bytes32"
        },
        {
          "internalType": "string",
          "name": "_result",
          "type": "string"
        }
      ],
      "name": "__callback",
      "outputs": [],
      "payable": false,
      "stateMutability": "nonpayable",
      "type": "function"
    },
    {
      "constant": false,
      "inputs": [
        {
          "internalType": "bytes32",
          "name": "_myid",
          "type": "bytes32"
        },
        {
          "internalType": "string",
          "name": "_result",
          "type": "string"
        },
        {
          "internalType": "bytes",
          "name": "_proof",
          "type": "bytes"
        }
      ],
      "name": "__callback",
      "outputs": [],
      "payable": false,
      "stateMutability": "nonpayable",
      "type": "function"
    },
    {
      "constant": false,
      "inputs": [
        {
          "internalType": "address",
          "name": "to",
          "type": "address"
        },
        {
          "internalType": "uint256",
          "name": "tokenId",
          "type": "uint256"
        }
      ],
      "name": "approve",
      "outputs": [],
      "payable": false,
      "stateMutability": "nonpayable",
      "type": "function"
    },
    {
      "constant": true,
      "inputs": [
        {
          "internalType": "address",
          "name": "owner",
          "type": "address"
        }
      ],
      "name": "balanceOf",
      "outputs": [
        {
          "internalType": "uint256",
          "name": "",
          "type": "uint256"
        }
      ],
      "payable": false,
      "stateMutability": "view",
      "type": "function"
    },
    {
      "constant": true,
      "inputs": [
        {
          "internalType": "uint256",
          "name": "tokenId",
          "type": "uint256"
        }
      ],
      "name": "getApproved",
      "outputs": [
        {
          "internalType": "address",
          "name": "",
          "type": "address"
        }
      ],
      "payable": false,
      "stateMutability": "view",
      "type": "function"
    },
    {
      "constant": true,
      "inputs": [],
      "name": "getBaseTokenURI",
      "outputs": [
        {
          "internalType": "string",
          "name": "",
          "type": "string"
        }
      ],
      "payable": false,
      "stateMutability": "view",
      "type": "function"
    },
    {
      "constant": true,
      "inputs": [],
      "name": "getOwner",
      "outputs": [
        {
          "internalType": "address",
          "name": "",
          "type": "address"
        }
      ],
      "payable": false,
      "stateMutability": "view",
      "type": "function"
    },
    {
      "constant": true,
      "inputs": [
        {
          "internalType": "address",
          "name": "owner",
          "type": "address"
        },
        {
          "internalType": "address",
          "name": "operator",
          "type": "address"
        }
      ],
      "name": "isApprovedForAll",
      "outputs": [
        {
          "internalType": "bool",
          "name": "",
          "type": "bool"
        }
      ],
      "payable": false,
      "stateMutability": "view",
      "type": "function"
    },
    {
      "constant": false,
      "inputs": [
        {
          "internalType": "address",
          "name": "to",
          "type": "address"
        },
        {
          "internalType": "uint256",
          "name": "tokenId",
          "type": "uint256"
        }
      ],
      "name": "mint",
      "outputs": [
        {
          "internalType": "bool",
          "name": "",
          "type": "bool"
        }
      ],
      "payable": false,
      "stateMutability": "nonpayable",
      "type": "function"
    },
    {
      "constant": true,
      "inputs": [],
      "name": "name",
      "outputs": [
        {
          "internalType": "string",
          "name": "",
          "type": "string"
        }
      ],
      "payable": false,
      "stateMutability": "view",
      "type": "function"
    },
    {
      "constant": true,
      "inputs": [
        {
          "internalType": "uint256",
          "name": "tokenId",
          "type": "uint256"
        }
      ],
      "name": "ownerOf",
      "outputs": [
        {
          "internalType": "address",
          "name": "",
          "type": "address"
        }
      ],
      "payable": false,
      "stateMutability": "view",
      "type": "function"
    },
    {
      "constant": false,
      "inputs": [],
      "name": "pause",
      "outputs": [],
      "payable": false,
      "stateMutability": "nonpayable",
      "type": "function"
    },
    {
      "constant": false,
      "inputs": [
        {
          "internalType": "address",
          "name": "from",
          "type": "address"
        },
        {
          "internalType": "address",
          "name": "to",
          "type": "address"
        },
        {
          "internalType": "uint256",
          "name": "tokenId",
          "type": "uint256"
        }
      ],
      "name": "safeTransferFrom",
      "outputs": [],
      "payable": false,
      "stateMutability": "nonpayable",
      "type": "function"
    },
    {
      "constant": false,
      "inputs": [
        {
          "internalType": "address",
          "name": "from",
          "type": "address"
        },
        {
          "internalType": "address",
          "name": "to",
          "type": "address"
        },
        {
          "internalType": "uint256",
          "name": "tokenId",
          "type": "uint256"
        },
        {
          "internalType": "bytes",
          "name": "_data",
          "type": "bytes"
        }
      ],
      "name": "safeTransferFrom",
      "outputs": [],
      "payable": false,
      "stateMutability": "nonpayable",
      "type": "function"
    },
    {
      "constant": false,
      "inputs": [
        {
          "internalType": "address",
          "name": "to",
          "type": "address"
        },
        {
          "internalType": "bool",
          "name": "approved",
          "type": "bool"
        }
      ],
      "name": "setApprovalForAll",
      "outputs": [],
      "payable": false,
      "stateMutability": "nonpayable",
      "type": "function"
    },
    {
      "constant": true,
      "inputs": [
        {
          "internalType": "bytes4",
          "name": "interfaceId",
          "type": "bytes4"
        }
      ],
      "name": "supportsInterface",
      "outputs": [
        {
          "internalType": "bool",
          "name": "",
          "type": "bool"
        }
      ],
      "payable": false,
      "stateMutability": "view",
      "type": "function"
    },
    {
      "constant": true,
      "inputs": [],
      "name": "symbol",
      "outputs": [
        {
          "internalType": "string",
          "name": "",
          "type": "string"
        }
      ],
      "payable": false,
      "stateMutability": "view",
      "type": "function"
    },
    {
      "constant": true,
      "inputs": [
        {
          "internalType": "uint256",
          "name": "index",
          "type": "uint256"
        }
      ],
      "name": "tokenByIndex",
      "outputs": [
        {
          "internalType": "uint256",
          "name": "",
          "type": "uint256"
        }
      ],
      "payable": false,
      "stateMutability": "view",
      "type": "function"
    },
    {
      "constant": true,
      "inputs": [
        {
          "internalType": "address",
          "name": "owner",
          "type": "address"
        },
        {
          "internalType": "uint256",
          "name": "index",
          "type": "uint256"
        }
      ],
      "name": "tokenOfOwnerByIndex",
      "outputs": [
        {
          "internalType": "uint256",
          "name": "",
          "type": "uint256"
        }
      ],
      "payable": false,
      "stateMutability": "view",
      "type": "function"
    },
    {
      "constant": true,
      "inputs": [
        {
          "internalType": "uint256",
          "name": "tokenId",
          "type": "uint256"
        }
      ],
      "name": "tokenURI",
      "outputs": [
        {
          "internalType": "string",
          "name": "",
          "type": "string"
        }
      ],
      "payable": false,
      "stateMutability": "view",
      "type": "function"
    },
    {
      "constant": true,
      "inputs": [],
      "name": "totalSupply",
      "outputs": [
        {
          "internalType": "uint256",
          "name": "",
          "type": "uint256"
        }
      ],
      "payable": false,
      "stateMutability": "view",
      "type": "function"
    },
    {
      "constant": false,
      "inputs": [
        {
          "internalType": "address",
          "name": "from",
          "type": "address"
        },
        {
          "internalType": "address",
          "name": "to",
          "type": "address"
        },
        {
          "internalType": "uint256",
          "name": "tokenId",
          "type": "uint256"
        }
      ],
      "name": "transferFrom",
      "outputs": [],
      "payable": false,
      "stateMutability": "nonpayable",
      "type": "function"
    },
    {
      "constant": false,
      "inputs": [
        {
          "internalType": "address",
          "name": "newOwner",
          "type": "address"
        }
      ],
      "name": "transferOwnership",
      "outputs": [],
      "payable": false,
      "stateMutability": "nonpayable",
      "type": "function"
    },
    {
      "constant": false,
      "inputs": [],
      "name": "unpause",
      "outputs": [],
      "payable": false,
      "stateMutability": "nonpayable",
      "type": "function"
    },
    {
      "constant": true,
      "inputs": [
        {
          "components": [
            {
              "components": [
                {
                  "internalType": "uint256",
                  "name": "X",
                  "type": "uint256"
                },
                {
                  "internalType": "uint256",
                  "name": "Y",
                  "type": "uint256"
                }
              ],
              "internalType": "struct Pairing.G1Point",
              "name": "a",
              "type": "tuple"
            },
            {
              "components": [
                {
                  "internalType": "uint256[2]",
                  "name": "X",
                  "type": "uint256[2]"
                },
                {
                  "internalType": "uint256[2]",
                  "name": "Y",
                  "type": "uint256[2]"
                }
              ],
              "internalType": "struct Pairing.G2Point",
              "name": "b",
              "type": "tuple"
            },
            {
              "components": [
                {
                  "internalType": "uint256",
                  "name": "X",
                  "type": "uint256"
                },
                {
                  "internalType": "uint256",
                  "name": "Y",
                  "type": "uint256"
                }
              ],
              "internalType": "struct Pairing.G1Point",
              "name": "c",
              "type": "tuple"
            }
          ],
          "internalType": "struct Verifier.Proof",
          "name": "proof",
          "type": "tuple"
        },
        {
          "internalType": "uint256[2]",
          "name": "input",
          "type": "uint256[2]"
        }
      ],
      "name": "verifyTx",
      "outputs": [
        {
          "internalType": "bool",
          "name": "r",
          "type": "bool"
        }
      ],
      "payable": false,
      "stateMutability": "view",
      "type": "function"
    },
    {
      "constant": false,
      "inputs": [
        {
          "internalType": "address",
          "name": "owner",
          "type": "address"
        },
        {
          "internalType": "bytes32",
          "name": "solHash",
          "type": "bytes32"
        }
      ],
      "name": "addSolution",
      "outputs": [],
      "payable": false,
      "stateMutability": "nonpayable",
      "type": "function"
    },
    {
      "constant": false,
      "inputs": [
        {
          "internalType": "address",
          "name": "tokenOwner",
          "type": "address"
        },
        {
          "internalType": "uint256",
          "name": "tokenId",
          "type": "uint256"
        },
        {
          "components": [
            {
              "components": [
                {
                  "internalType": "uint256",
                  "name": "X",
                  "type": "uint256"
                },
                {
                  "internalType": "uint256",
                  "name": "Y",
                  "type": "uint256"
                }
              ],
              "internalType": "struct Pairing.G1Point",
              "name": "a",
              "type": "tuple"
            },
            {
              "components": [
                {
                  "internalType": "uint256[2]",
                  "name": "X",
                  "type": "uint256[2]"
                },
                {
                  "internalType": "uint256[2]",
                  "name": "Y",
                  "type": "uint256[2]"
                }
              ],
              "internalType": "struct Pairing.G2Point",
              "name": "b",
              "type": "tuple"
            },
            {
              "components": [
                {
                  "internalType": "uint256",
                  "name": "X",
                  "type": "uint256"
                },
                {
                  "internalType": "uint256",
                  "name": "Y",
                  "type": "uint256"
                }
              ],
              "internalType": "struct Pairing.G1Point",
              "name": "c",
              "type": "tuple"
            }
          ],
          "internalType": "struct Verifier.Proof",
          "name": "proof",
          "type": "tuple"
        },
        {
          "internalType": "uint256[2]",
          "name": "input",
          "type": "uint256[2]"
        }
      ],
      "name": "mintVerifiedNFT",
      "outputs": [],
      "payable": false,
      "stateMutability": "nonpayable",
      "type": "function"
    },
    {
      "constant": true,
      "inputs": [
        {
          "components": [
            {
              "components": [
                {
                  "internalType": "uint256",
                  "name": "X",
                  "type": "uint256"
                },
                {
                  "internalType": "uint256",
                  "name": "Y",
                  "type": "uint256"
                }
              ],
              "internalType": "struct Pairing.G1Point",
              "name": "a",
              "type": "tuple"
            },
            {
              "components": [
                {
                  "internalType": "uint256[2]",
                  "name": "X",
                  "type": "uint256[2]"
                },
                {
                  "internalType": "uint256[2]",
                  "name": "Y",
                  "type": "uint256[2]"
                }
              ],
              "internalType": "struct Pairing.G2Point",
              "name": "b",
              "type": "tuple"
            },
            {
              "components": [
                {
                  "internalType": "uint256",
                  "name": "X",
                  "type": "uint256"
                },
                {
                  "internalType": "uint256",
                  "name": "Y",
                  "type": "uint256"
                }
              ],
              "internalType": "struct Pairing.G1Point",
              "name": "c",
              "type": "tuple"
            }
          ],
          "internalType": "struct Verifier.Proof",
          "name": "proof",
          "type": "tuple"
        },
        {
          "internalType": "uint256[2]",
          "name": "input",
          "type": "uint256[2]"
        }
      ],
      "name": "getSolutionHash",
      "outputs": [
        {
          "internalType": "bytes32",
          "name": "solHash",
          "type": "bytes32"
        }
      ],
      "payable": false,
      "stateMutability": "pure",
      "type": "function"
    }
  ],
  "bytecode": "0x60806040526040518060600160405280603f815260200162004e8c603f9139601390805190602001906200003592919062000300565b503480156200004357600080fd5b5060405162004ecb38038062004ecb833981810160405262000069919081019062000422565b8181818160138054600181600116156101000203166002900480601f016020809104026020016040519081016040528092919081815260200182805460018160011615610100020316600290048015620001075780601f10620000db5761010080835404028352916020019162000107565b820191906000526020600020905b815481529060010190602001808311620000e957829003601f168201915b5050505050336000806101000a81548173ffffffffffffffffffffffffffffffffffffffff021916908373ffffffffffffffffffffffffffffffffffffffff16021790555060008060146101000a81548160ff0219169083151502179055506200017e6301ffc9a760e01b6200026060201b60201c565b620001966380ac58cd60e01b6200026060201b60201c565b620001ae63780e9d6360e01b6200026060201b60201c565b82600f9080519060200190620001c692919062000300565b508160109080519060200190620001df92919062000300565b508060119080519060200190620001f892919062000300565b5062000211635b5e139f60e01b6200026060201b60201c565b505050505082601660006101000a81548173ffffffffffffffffffffffffffffffffffffffff021916908373ffffffffffffffffffffffffffffffffffffffff16021790555050505062000589565b63ffffffff60e01b817bffffffffffffffffffffffffffffffffffffffffffffffffffffffff191614156200029457600080fd5b6001806000837bffffffffffffffffffffffffffffffffffffffffffffffffffffffff19167bffffffffffffffffffffffffffffffffffffffffffffffffffffffff1916815260200190815260200160002060006101000a81548160ff02191690831515021790555050565b828054600181600116156101000203166002900490600052602060002090601f016020900481019282601f106200034357805160ff191683800117855562000374565b8280016001018555821562000374579182015b828111156200037357825182559160200191906001019062000356565b5b50905062000383919062000387565b5090565b620003ac91905b80821115620003a85760008160009055506001016200038e565b5090565b90565b600081519050620003c0816200056f565b92915050565b600082601f830112620003d857600080fd5b8151620003ef620003e982620004d8565b620004aa565b915080825260208301602083018583830111156200040c57600080fd5b6200041983828462000539565b50505092915050565b6000806000606084860312156200043857600080fd5b60006200044886828701620003af565b935050602084015167ffffffffffffffff8111156200046657600080fd5b6200047486828701620003c6565b925050604084015167ffffffffffffffff8111156200049257600080fd5b620004a086828701620003c6565b9150509250925092565b6000604051905081810181811067ffffffffffffffff82111715620004ce57600080fd5b8060405250919050565b600067ffffffffffffffff821115620004f057600080fd5b601f19601f8301169050602081019050919050565b6000620005128262000519565b9050919050565b600073ffffffffffffffffffffffffffffffffffffffff82169050919050565b60005b83811015620005595780820151818401526020810190506200053c565b8381111562000569576000848401525b50505050565b6200057a8162000505565b81146200058657600080fd5b50565b6148f380620005996000396000f3fe608060405234801561001057600080fd5b50600436106101c45760003560e01c806343cd76fc116100f9578063a22cb46511610097578063bdc32be011610071578063bdc32be014610501578063c87b56dd1461051f578063e985e9c51461054f578063f2fde38b1461057f576101c4565b8063a22cb465146104ad578063a6ffc852146104c9578063b88d4fde146104e5576101c4565b806370a08231116100d357806370a08231146104375780638456cb5914610467578063893d20e81461047157806395d89b411461048f576101c4565b806343cd76fc146103a75780634f6ccce7146103d75780636352211e14610407576101c4565b806324171ab61161016657806338bbfa501161014057806338bbfa50146103355780633f4ba83a1461035157806340c10f191461035b57806342842e0e1461038b576101c4565b806324171ab6146102b957806327dc297e146102e95780632f745c5914610305576101c4565b8063095ea7b3116101a2578063095ea7b314610247578063106e426e1461026357806318160ddd1461027f57806323b872dd1461029d576101c4565b806301ffc9a7146101c957806306fdde03146101f9578063081812fc14610217575b600080fd5b6101e360048036036101de9190810190613ba4565b61059b565b6040516101f091906143a8565b60405180910390f35b610201610603565b60405161020e91906143de565b60405180910390f35b610231600480360361022c9190810190613c34565b6106a5565b60405161023e91906142fd565b60405180910390f35b610261600480360361025c9190810190613a07565b6106e2565b005b61027d600480360361027891908101906139cb565b610896565b005b610287610a47565b60405161029491906145ab565b60405180910390f35b6102b760048036036102b291908101906138c5565b610a54565b005b6102d360048036036102ce9190810190613bf6565b610a77565b6040516102e091906143c3565b60405180910390f35b61030360048036036102fe9190810190613ad1565b610ae4565b005b61031f600480360361031a9190810190613a07565b610b27565b60405161032c91906145ab565b60405180910390f35b61034f600480360361034a9190810190613b25565b610b9a565b005b610359610b9f565b005b61037560048036036103709190810190613a07565b610cd0565b60405161038291906143a8565b60405180910390f35b6103a560048036036103a091908101906138c5565b610d7e565b005b6103c160048036036103bc9190810190613bf6565b610d9e565b6040516103ce91906143a8565b60405180910390f35b6103f160048036036103ec9190810190613c34565b610e43565b6040516103fe91906145ab565b60405180910390f35b610421600480360361041c9190810190613c34565b610e77565b60405161042e91906142fd565b60405180910390f35b610451600480360361044c9190810190613860565b610eb4565b60405161045e91906145ab565b60405180910390f35b61046f610f04565b005b610479611037565b60405161048691906142fd565b60405180910390f35b610497611060565b6040516104a491906143de565b60405180910390f35b6104c760048036036104c2919081019061398f565b611102565b005b6104e360048036036104de9190810190613a43565b611238565b005b6104ff60048036036104fa9190810190613914565b611422565b005b610509611448565b60405161051691906143de565b60405180910390f35b61053960048036036105349190810190613c34565b6114ea565b60405161054691906143de565b60405180910390f35b61056960048036036105649190810190613889565b6115b1565b60405161057691906143a8565b60405180910390f35b61059960048036036105949190810190613860565b611645565b005b600060016000837bffffffffffffffffffffffffffffffffffffffffffffffffffffffff19167bffffffffffffffffffffffffffffffffffffffffffffffffffffffff1916815260200190815260200160002060009054906101000a900460ff169050919050565b6060600f8054600181600116156101000203166002900480601f01602080910402602001604051908101604052809291908181526020018280546001816001161561010002031660029004801561069b5780601f106106705761010080835404028352916020019161069b565b820191906000526020600020905b81548152906001019060200180831161067e57829003601f168201915b5050505050905090565b60006003600083815260200190815260200160002060009054906101000a900473ffffffffffffffffffffffffffffffffffffffff169050919050565b60006106ed82610e77565b90508273ffffffffffffffffffffffffffffffffffffffff168173ffffffffffffffffffffffffffffffffffffffff16141561075e576040517f08c379a000000000000000000000000000000000000000000000000000000000815260040161075590614540565b60405180910390fd5b3373ffffffffffffffffffffffffffffffffffffffff1661077d611037565b73ffffffffffffffffffffffffffffffffffffffff1614806107a557506107a481336115b1565b5b6107e4576040517f08c379a00000000000000000000000000000000000000000000000000000000081526004016107db90614500565b60405180910390fd5b336003600084815260200190815260200160002060006101000a81548173ffffffffffffffffffffffffffffffffffffffff021916908373ffffffffffffffffffffffffffffffffffffffff160217905550818373ffffffffffffffffffffffffffffffffffffffff168273ffffffffffffffffffffffffffffffffffffffff167f8c5be1e5ebec7d5bd14f71427d1e84f3dd0314c0f7b2291e5b200ac8c7c3b92560405160405180910390a4505050565b600060148054905090506108a8613311565b60405180606001604052808381526020018573ffffffffffffffffffffffffffffffffffffffff168152602001600015158152509050601481908060018154018082558091505090600182039060005260206000209060020201600090919290919091506000820151816000015560208201518160010160006101000a81548173ffffffffffffffffffffffffffffffffffffffff021916908373ffffffffffffffffffffffffffffffffffffffff16021790555060408201518160010160146101000a81548160ff02191690831515021790555050505080601560008581526020019081526020016000206000820151816000015560208201518160010160006101000a81548173ffffffffffffffffffffffffffffffffffffffff021916908373ffffffffffffffffffffffffffffffffffffffff16021790555060408201518160010160146101000a81548160ff0219169083151502179055509050507f3a01cc868bdb36c1d9b8a262a8ad25064b23ac175b3f8e4453f1daf8ff6bac0d8483604051610a3992919061437f565b60405180910390a150505050565b6000600880549050905090565b610a5e33826117b8565b610a6757600080fd5b610a7283838361184d565b505050565b600082600001516000015183600001516020015184602001516000015185602001516020015186604001516000015187604001516020015187604051602001610ac6979695949392919061427c565b60405160208183030381529060405280519060200120905092915050565b610b23828260006040519080825280601f01601f191660200182016040528015610b1d5781602001600182028038833980820191505090505b50610b9a565b5050565b6000610b3283610eb4565b8210610b3d57600080fd5b600660008473ffffffffffffffffffffffffffffffffffffffff1673ffffffffffffffffffffffffffffffffffffffff1681526020019081526020016000208281548110610b8757fe5b9060005260206000200154905092915050565b505050565b3373ffffffffffffffffffffffffffffffffffffffff166000809054906101000a900473ffffffffffffffffffffffffffffffffffffffff1673ffffffffffffffffffffffffffffffffffffffff1614610c2e576040517f08c379a0000000000000000000000000000000000000000000000000000000008152600401610c25906144e0565b60405180910390fd5b600060149054906101000a900460ff16610c7d576040517f08c379a0000000000000000000000000000000000000000000000000000000008152600401610c7490614480565b60405180910390fd5b60008060146101000a81548160ff0219169083151502179055507f5db9ee0a495bf2e6ff9c91a7834c1ba4fdd244a5e8aa4e537bd38aeae4b073aa33604051610cc69190614318565b60405180910390a1565b60003373ffffffffffffffffffffffffffffffffffffffff166000809054906101000a900473ffffffffffffffffffffffffffffffffffffffff1673ffffffffffffffffffffffffffffffffffffffff1614610d61576040517f08c379a0000000000000000000000000000000000000000000000000000000008152600401610d58906144e0565b60405180910390fd5b610d6b8383611871565b610d7482611892565b6001905092915050565b610d9983838360405180602001604052806000815250611422565b505050565b600060606002604051908082528060200260200182016040528015610dd25781602001602082028038833980820191505090505b50905060008090505b6002811015610e1a57838160028110610df057fe5b6020020151828281518110610e0157fe5b6020026020010181815250508080600101915050610ddb565b506000610e2782866119b0565b1415610e37576001915050610e3d565b60009150505b92915050565b6000610e4d610a47565b8210610e5857600080fd5b60088281548110610e6557fe5b90600052602060002001549050919050565b60006002600083815260200190815260200160002060009054906101000a900473ffffffffffffffffffffffffffffffffffffffff169050919050565b6000610efd600460008473ffffffffffffffffffffffffffffffffffffffff1673ffffffffffffffffffffffffffffffffffffffff168152602001908152602001600020611b22565b9050919050565b3373ffffffffffffffffffffffffffffffffffffffff166000809054906101000a900473ffffffffffffffffffffffffffffffffffffffff1673ffffffffffffffffffffffffffffffffffffffff1614610f93576040517f08c379a0000000000000000000000000000000000000000000000000000000008152600401610f8a906144e0565b60405180910390fd5b600060149054906101000a900460ff1615610fe3576040517f08c379a0000000000000000000000000000000000000000000000000000000008152600401610fda90614520565b60405180910390fd5b6001600060146101000a81548160ff0219169083151502179055507f62e78cea01bee320cd4e420270b5ea74000d11b0c9f74754ebdbfc544b05a2583360405161102d9190614318565b60405180910390a1565b60008060009054906101000a900473ffffffffffffffffffffffffffffffffffffffff16905090565b606060108054600181600116156101000203166002900480601f0160208091040260200160405190810160405280929190818152602001828054600181600116156101000203166002900480156110f85780601f106110cd576101008083540402835291602001916110f8565b820191906000526020600020905b8154815290600101906020018083116110db57829003601f168201915b5050505050905090565b3373ffffffffffffffffffffffffffffffffffffffff168273ffffffffffffffffffffffffffffffffffffffff16141561113b57600080fd5b80600560003373ffffffffffffffffffffffffffffffffffffffff1673ffffffffffffffffffffffffffffffffffffffff16815260200190815260200160002060008473ffffffffffffffffffffffffffffffffffffffff1673ffffffffffffffffffffffffffffffffffffffff16815260200190815260200160002060006101000a81548160ff0219169083151502179055508173ffffffffffffffffffffffffffffffffffffffff163373ffffffffffffffffffffffffffffffffffffffff167f17307eab39ab6107e8899845ad3d59bd9653f200f220920489ca2b5937696c318360405161122c91906143a8565b60405180910390a35050565b601660009054906101000a900473ffffffffffffffffffffffffffffffffffffffff1673ffffffffffffffffffffffffffffffffffffffff166343cd76fc83836040518363ffffffff1660e01b8152600401611295929190614580565b60206040518083038186803b1580156112ad57600080fd5b505afa1580156112c1573d6000803e3d6000fd5b505050506040513d601f19601f820116820180604052506112e59190810190613aa8565b611324576040517f08c379a000000000000000000000000000000000000000000000000000000000815260040161131b90614460565b60405180910390fd5b60006113308383610a77565b9050600073ffffffffffffffffffffffffffffffffffffffff166015600083815260200190815260200160002060010160009054906101000a900473ffffffffffffffffffffffffffffffffffffffff1673ffffffffffffffffffffffffffffffffffffffff16146113d7576040517f08c379a00000000000000000000000000000000000000000000000000000000081526004016113ce90614560565b60405180910390fd5b6113e18582610896565b6113eb8585610cd0565b5060016015600083815260200190815260200160002060010160146101000a81548160ff0219169083151502179055505050505050565b61142d848484610a54565b61143984848484611b30565b61144257600080fd5b50505050565b606060118054600181600116156101000203166002900480601f0160208091040260200160405190810160405280929190818152602001828054600181600116156101000203166002900480156114e05780601f106114b5576101008083540402835291602001916114e0565b820191906000526020600020905b8154815290600101906020018083116114c357829003601f168201915b5050505050905090565b60606114f582611c47565b6114fe57600080fd5b601260008381526020019081526020016000208054600181600116156101000203166002900480601f0160208091040260200160405190810160405280929190818152602001828054600181600116156101000203166002900480156115a55780601f1061157a576101008083540402835291602001916115a5565b820191906000526020600020905b81548152906001019060200180831161158857829003601f168201915b50505050509050919050565b6000600560008473ffffffffffffffffffffffffffffffffffffffff1673ffffffffffffffffffffffffffffffffffffffff16815260200190815260200160002060008373ffffffffffffffffffffffffffffffffffffffff1673ffffffffffffffffffffffffffffffffffffffff16815260200190815260200160002060009054906101000a900460ff16905092915050565b3373ffffffffffffffffffffffffffffffffffffffff166000809054906101000a900473ffffffffffffffffffffffffffffffffffffffff1673ffffffffffffffffffffffffffffffffffffffff16146116d4576040517f08c379a00000000000000000000000000000000000000000000000000000000081526004016116cb906144e0565b60405180910390fd5b6116dd81611cb9565b1561171d576040517f08c379a0000000000000000000000000000000000000000000000000000000008152600401611714906144a0565b60405180910390fd5b806000806101000a81548173ffffffffffffffffffffffffffffffffffffffff021916908373ffffffffffffffffffffffffffffffffffffffff1602179055507fb5dd3568787d73bfc318dde9151384113c6040cc0e486322c1eabfe6133d17146000809054906101000a900473ffffffffffffffffffffffffffffffffffffffff166040516117ad91906142fd565b60405180910390a150565b6000806117c483610e77565b90508073ffffffffffffffffffffffffffffffffffffffff168473ffffffffffffffffffffffffffffffffffffffff16148061183357508373ffffffffffffffffffffffffffffffffffffffff1661181b846106a5565b73ffffffffffffffffffffffffffffffffffffffff16145b80611844575061184381856115b1565b5b91505092915050565b611858838383611d04565b6118628382611efd565b61186c828261209b565b505050565b61187b8282612162565b611885828261209b565b61188e81612314565b5050565b61189b81611c47565b6118da576040517f08c379a00000000000000000000000000000000000000000000000000000000081526004016118d190614440565b60405180910390fd5b61198660118054600181600116156101000203166002900480601f0160208091040260200160405190810160405280929190818152602001828054600181600116156101000203166002900480156119735780601f1061194857610100808354040283529160200191611973565b820191906000526020600020905b81548152906001019060200180831161195657829003601f168201915b505050505061198183612360565b61248d565b6012600083815260200190815260200160002090805190602001906119ac92919061334a565b5050565b6000807f30644e72e131a029b85045b68181585d2833e84879b9709143e1f593f000000190506119de6133ca565b6119e66124d1565b90508060800151516001865101146119fd57600080fd5b611a05613411565b6040518060400160405280600081526020016000815250905060008090505b8651811015611a9b5783878281518110611a3a57fe5b602002602001015110611a4c57600080fd5b611a8c82611a8785608001516001850181518110611a6657fe5b60200260200101518a8581518110611a7a57fe5b602002602001015161291f565b6129b1565b91508080600101915050611a24565b50611abe818360800151600081518110611ab157fe5b60200260200101516129b1565b9050611b0485600001518660200151611ad684612a62565b8560400151611ae88a60400151612a62565b8760600151611afa8960000151612a62565b8960200151612afc565b611b145760019350505050611b1c565b600093505050505b92915050565b600081600001549050919050565b6000611b518473ffffffffffffffffffffffffffffffffffffffff16611cb9565b611b5e5760019050611c3f565b60008473ffffffffffffffffffffffffffffffffffffffff1663150b7a02338887876040518563ffffffff1660e01b8152600401611b9f9493929190614333565b602060405180830381600087803b158015611bb957600080fd5b505af1158015611bcd573d6000803e3d6000fd5b505050506040513d601f19601f82011682018060405250611bf19190810190613bcd565b905063150b7a0260e01b7bffffffffffffffffffffffffffffffffffffffffffffffffffffffff1916817bffffffffffffffffffffffffffffffffffffffffffffffffffffffff1916149150505b949350505050565b6000806002600084815260200190815260200160002060009054906101000a900473ffffffffffffffffffffffffffffffffffffffff169050600073ffffffffffffffffffffffffffffffffffffffff168173ffffffffffffffffffffffffffffffffffffffff161415915050919050565b60008060007fc5d2460186f7233c927e7db2dcc703c0e500b653ca82273b7bfad8045d85a47060001b9050833f9150808214158015611cfb57506000801b8214155b92505050919050565b611d0d81610e77565b73ffffffffffffffffffffffffffffffffffffffff168373ffffffffffffffffffffffffffffffffffffffff1614611d7a576040517f08c379a0000000000000000000000000000000000000000000000000000000008152600401611d71906144c0565b60405180910390fd5b600073ffffffffffffffffffffffffffffffffffffffff168273ffffffffffffffffffffffffffffffffffffffff161415611db457600080fd5b611dbd81612c60565b611e04600460008573ffffffffffffffffffffffffffffffffffffffff1673ffffffffffffffffffffffffffffffffffffffff168152602001908152602001600020612d1e565b611e4b600460008473ffffffffffffffffffffffffffffffffffffffff1673ffffffffffffffffffffffffffffffffffffffff168152602001908152602001600020612d41565b816002600083815260200190815260200160002060006101000a81548173ffffffffffffffffffffffffffffffffffffffff021916908373ffffffffffffffffffffffffffffffffffffffff160217905550808273ffffffffffffffffffffffffffffffffffffffff168473ffffffffffffffffffffffffffffffffffffffff167fddf252ad1be2c89b69c2b068fc378daa952ba7f163c4a11628f55a4df523b3ef60405160405180910390a4505050565b6000611f556001600660008673ffffffffffffffffffffffffffffffffffffffff1673ffffffffffffffffffffffffffffffffffffffff16815260200190815260200160002080549050612d5790919063ffffffff16565b9050600060076000848152602001908152602001600020549050818114612042576000600660008673ffffffffffffffffffffffffffffffffffffffff1673ffffffffffffffffffffffffffffffffffffffff1681526020019081526020016000208381548110611fc257fe5b9060005260206000200154905080600660008773ffffffffffffffffffffffffffffffffffffffff1673ffffffffffffffffffffffffffffffffffffffff168152602001908152602001600020838154811061201a57fe5b9060005260206000200181905550816007600083815260200190815260200160002081905550505b600660008573ffffffffffffffffffffffffffffffffffffffff1673ffffffffffffffffffffffffffffffffffffffff168152602001908152602001600020805480919060019003612094919061342b565b5050505050565b600660008373ffffffffffffffffffffffffffffffffffffffff1673ffffffffffffffffffffffffffffffffffffffff168152602001908152602001600020805490506007600083815260200190815260200160002081905550600660008373ffffffffffffffffffffffffffffffffffffffff1673ffffffffffffffffffffffffffffffffffffffff1681526020019081526020016000208190806001815401808255809150509060018203906000526020600020016000909192909190915055505050565b61216b81611c47565b156121ab576040517f08c379a00000000000000000000000000000000000000000000000000000000081526004016121a290614420565b60405180910390fd5b600073ffffffffffffffffffffffffffffffffffffffff168273ffffffffffffffffffffffffffffffffffffffff16141561221b576040517f08c379a000000000000000000000000000000000000000000000000000000000815260040161221290614400565b60405180910390fd5b816002600083815260200190815260200160002060006101000a81548173ffffffffffffffffffffffffffffffffffffffff021916908373ffffffffffffffffffffffffffffffffffffffff1602179055506122b4600460008473ffffffffffffffffffffffffffffffffffffffff1673ffffffffffffffffffffffffffffffffffffffff168152602001908152602001600020612d41565b808273ffffffffffffffffffffffffffffffffffffffff16600073ffffffffffffffffffffffffffffffffffffffff167fddf252ad1be2c89b69c2b068fc378daa952ba7f163c4a11628f55a4df523b3ef60405160405180910390a45050565b6008805490506009600083815260200190815260200160002081905550600881908060018154018082558091505090600182039060005260206000200160009091929091909150555050565b606060008214156123a8576040518060400160405280600181526020017f30000000000000000000000000000000000000000000000000000000000000008152509050612488565b600082905060005b600082146123d2578080600101915050600a82816123ca57fe5b0491506123b0565b6060816040519080825280601f01601f1916602001820160405280156124075781602001600182028038833980820191505090505b50905060006001830390505b6000861461248057600a868161242557fe5b0660300160f81b8282806001900393508151811061243f57fe5b60200101907effffffffffffffffffffffffffffffffffffffffffffffffffffffffffffff1916908160001a905350600a868161247857fe5b049550612413565b819450505050505b919050565b60606124c98383604051806020016040528060008152506040518060200160405280600081525060405180602001604052806000815250612da1565b905092915050565b6124d96133ca565b60405180604001604052807f2543396cef98e72093c2b827fdcfff48ae61e674074881f2e2482947f99cad2881526020017f24d1379ad925b85e433aba922c14a6880b94fd99d965a6c8f02c28d6f320e67a8152508160000181905250604051806040016040528060405180604001604052807f0221de37216644acbc4313612980025d0386c47b8f3b278bdb25073063c29e0d81526020017f29036e2b41fe563f0f5abe1eaf2a1c0255f0fab3bef09cbc5de9d52b08e765b7815250815260200160405180604001604052807f038a4a6bcaaa06421fd170f44846468960ee2506722fd71541ece76b4edafced81526020017f0286a71c1a3489a7818328a0ec46b511088f2e331265c4abb550b4cf9bcc08918152508152508160200181905250604051806040016040528060405180604001604052807f1c8a81d8da11612501888bf89a724a00fc2306fcbee35c8c6e91109e1822274d81526020017f02303eb1c35025794418836c5c271571f2b9fc8bb36950fe6e32b251f32df87b815250815260200160405180604001604052807f2cf4a173e864b09e8b931badcb7fabca572a2db136e01be91bdd1bdd3b0993fd81526020017f1b632f420c712c1cb0c72d0f6779beba00ffc6ca78d7c2b4037f8b5b9055d5e18152508152508160400181905250604051806040016040528060405180604001604052807f2787c00d7beb4e91dd46363378c30d6313f6ec175ebff7c3cf86d590806617af81526020017f057cf7ff765744feb397fc26c3101fb0c964ea06eeb10ada46c534eef95721eb815250815260200160405180604001604052807f0f86f541f118292e7e5ac86690d414c9751ac90518470b4486dde746da631c7f81526020017f152dcbc453dd2705d4b8f883e7be5db54f516e686f7cf7816064aaab52304e1d815250815250816060018190525060036040519080825280602002602001820160405280156127c057816020015b6127ad613457565b8152602001906001900390816127a55790505b50816080018190525060405180604001604052807f2a7ed2fdc30e244a7df91674450bba493a7d2c2a9f6ba4d5fcea3a58abfdae3781526020017f15e3535eb4f1f76976a1d42d04ce22e6e6e72bef02907ce2e1b115749484d738815250816080015160008151811061282f57fe5b602002602001018190525060405180604001604052807f0e037f87f233cc3f338c9efb6807f82f0c6cf61dd9c6a80fa4ff5f2785dbb54a81526020017f030a3434c5878ecf4b3ac503e29de5cb5108cbea33334fd68bfec97ef683b68681525081608001516001815181106128a057fe5b602002602001018190525060405180604001604052807f02f218ede182ab454be585613613db00767be3acb61a0f45833e1d1dc084957d81526020017f2322edb65fb02616df2936905da83ce5fdf9c27197fc305e96f1730053f9677d815250816080015160028151811061291157fe5b602002602001018190525090565b612927613411565b61292f613471565b83600001518160006003811061294157fe5b60200201818152505083602001518160016003811061295c57fe5b602002018181525050828160026003811061297357fe5b602002018181525050600060608360808460076107d05a03fa9050806000811461299c5761299e565bfe5b50806129a957600080fd5b505092915050565b6129b9613411565b6129c1613493565b8360000151816000600481106129d357fe5b6020020181815250508360200151816001600481106129ee57fe5b602002018181525050826000015181600260048110612a0957fe5b602002018181525050826020015181600360048110612a2457fe5b602002018181525050600060608360c08460066107d05a03fa90508060008114612a4d57612a4f565bfe5b5080612a5a57600080fd5b505092915050565b612a6a613411565b60007f30644e72e131a029b85045b68181585d97816a916871ca8d3c208c16d87cfd47905060008360000151148015612aa7575060008360200151145b15612acb576040518060400160405280600081526020016000815250915050612af7565b60405180604001604052808460000151815260200182856020015181612aed57fe5b0683038152509150505b919050565b600060606004604051908082528060200260200182016040528015612b3b57816020015b612b28613457565b815260200190600190039081612b205790505b50905060606004604051908082528060200260200182016040528015612b7b57816020015b612b686134b5565b815260200190600190039081612b605790505b5090508a82600081518110612b8c57fe5b60200260200101819052508882600181518110612ba557fe5b60200260200101819052508682600281518110612bbe57fe5b60200260200101819052508482600381518110612bd757fe5b60200260200101819052508981600081518110612bf057fe5b60200260200101819052508781600181518110612c0957fe5b60200260200101819052508581600281518110612c2257fe5b60200260200101819052508381600381518110612c3b57fe5b6020026020010181905250612c508282613063565b9250505098975050505050505050565b600073ffffffffffffffffffffffffffffffffffffffff166003600083815260200190815260200160002060009054906101000a900473ffffffffffffffffffffffffffffffffffffffff1673ffffffffffffffffffffffffffffffffffffffff1614612d1b5760006003600083815260200190815260200160002060006101000a81548173ffffffffffffffffffffffffffffffffffffffff021916908373ffffffffffffffffffffffffffffffffffffffff1602179055505b50565b612d3660018260000154612d5790919063ffffffff16565b816000018190555050565b6001816000016000828254019250508190555050565b6000612d9983836040518060400160405280601e81526020017f536166654d6174683a207375627472616374696f6e206f766572666c6f7700008152506132b6565b905092915050565b6060808690506060869050606086905060608690506060869050606081518351855187518951010101016040519080825280601f01601f191660200182016040528015612dfd5781602001600182028038833980820191505090505b509050606081905060008090506000809050600090505b8851811015612e8257888181518110612e2957fe5b602001015160f81c60f81b838380600101945081518110612e4657fe5b60200101907effffffffffffffffffffffffffffffffffffffffffffffffffffffffffffff1916908160001a9053508080600101915050612e14565b600090505b8751811015612ef557878181518110612e9c57fe5b602001015160f81c60f81b838380600101945081518110612eb957fe5b60200101907effffffffffffffffffffffffffffffffffffffffffffffffffffffffffffff1916908160001a9053508080600101915050612e87565b600090505b8651811015612f6857868181518110612f0f57fe5b602001015160f81c60f81b838380600101945081518110612f2c57fe5b60200101907effffffffffffffffffffffffffffffffffffffffffffffffffffffffffffff1916908160001a9053508080600101915050612efa565b600090505b8551811015612fdb57858181518110612f8257fe5b602001015160f81c60f81b838380600101945081518110612f9f57fe5b60200101907effffffffffffffffffffffffffffffffffffffffffffffffffffffffffffff1916908160001a9053508080600101915050612f6d565b600090505b845181101561304e57848181518110612ff557fe5b602001015160f81c60f81b83838060010194508151811061301257fe5b60200101907effffffffffffffffffffffffffffffffffffffffffffffffffffffffffffff1916908160001a9053508080600101915050612fe0565b82995050505050505050505095945050505050565b6000815183511461307357600080fd5b60008351905060006006820290506060816040519080825280602002602001820160405280156130b25781602001602082028038833980820191505090505b50905060008090505b83811015613258578681815181106130cf57fe5b6020026020010151600001518260006006840201815181106130ed57fe5b60200260200101818152505086818151811061310557fe5b60200260200101516020015182600160068402018151811061312357fe5b60200260200101818152505085818151811061313b57fe5b60200260200101516000015160016002811061315357fe5b602002015182600260068402018151811061316a57fe5b60200260200101818152505085818151811061318257fe5b60200260200101516000015160006002811061319a57fe5b60200201518260036006840201815181106131b157fe5b6020026020010181815250508581815181106131c957fe5b6020026020010151602001516001600281106131e157fe5b60200201518260046006840201815181106131f857fe5b60200260200101818152505085818151811061321057fe5b60200260200101516020015160006002811061322857fe5b602002015182600560068402018151811061323f57fe5b60200260200101818152505080806001019150506130bb565b506132616134db565b6000602082602086026020860160086107d05a03fa9050806000811461328657613288565bfe5b508061329357600080fd5b6000826000600181106132a257fe5b602002015114159550505050505092915050565b60008383111582906132fe576040517f08c379a00000000000000000000000000000000000000000000000000000000081526004016132f591906143de565b60405180910390fd5b5060008385039050809150509392505050565b604051806060016040528060008152602001600073ffffffffffffffffffffffffffffffffffffffff1681526020016000151581525090565b828054600181600116156101000203166002900490600052602060002090601f016020900481019282601f1061338b57805160ff19168380011785556133b9565b828001600101855582156133b9579182015b828111156133b857825182559160200191906001019061339d565b5b5090506133c691906134fd565b5090565b6040518060a001604052806133dd613457565b81526020016133ea6134b5565b81526020016133f76134b5565b81526020016134046134b5565b8152602001606081525090565b604051806040016040528060008152602001600081525090565b8154818355818111156134525781836000526020600020918201910161345191906134fd565b5b505050565b604051806040016040528060008152602001600081525090565b6040518060600160405280600390602082028038833980820191505090505090565b6040518060800160405280600490602082028038833980820191505090505090565b60405180604001604052806134c8613522565b81526020016134d5613522565b81525090565b6040518060200160405280600190602082028038833980820191505090505090565b61351f91905b8082111561351b576000816000905550600101613503565b5090565b90565b6040518060400160405280600290602082028038833980820191505090505090565b6000813590506135538161483d565b92915050565b600082601f83011261356a57600080fd5b600261357d613578826145f3565b6145c6565b9150818385602084028201111561359357600080fd5b60005b838110156135c357816135a9888261384b565b845260208401935060208301925050600181019050613596565b5050505092915050565b600082601f8301126135de57600080fd5b60026135f16135ec82614615565b6145c6565b9150818385602084028201111561360757600080fd5b60005b83811015613637578161361d888261384b565b84526020840193506020830192505060018101905061360a565b5050505092915050565b60008135905061365081614854565b92915050565b60008151905061366581614854565b92915050565b60008135905061367a8161486b565b92915050565b60008135905061368f81614882565b92915050565b6000815190506136a481614882565b92915050565b600082601f8301126136bb57600080fd5b81356136ce6136c982614637565b6145c6565b915080825260208301602083018583830111156136ea57600080fd5b6136f58382846147e0565b50505092915050565b600082601f83011261370f57600080fd5b813561372261371d82614663565b6145c6565b9150808252602083016020830185838301111561373e57600080fd5b6137498382846147e0565b50505092915050565b60006040828403121561376457600080fd5b61376e60406145c6565b9050600061377e8482850161384b565b60008301525060206137928482850161384b565b60208301525092915050565b6000608082840312156137b057600080fd5b6137ba60406145c6565b905060006137ca84828501613559565b60008301525060406137de84828501613559565b60208301525092915050565b600061010082840312156137fd57600080fd5b61380760606145c6565b9050600061381784828501613752565b600083015250604061382b8482850161379e565b60208301525060c061383f84828501613752565b60408301525092915050565b60008135905061385a81614899565b92915050565b60006020828403121561387257600080fd5b600061388084828501613544565b91505092915050565b6000806040838503121561389c57600080fd5b60006138aa85828601613544565b92505060206138bb85828601613544565b9150509250929050565b6000806000606084860312156138da57600080fd5b60006138e886828701613544565b93505060206138f986828701613544565b925050604061390a8682870161384b565b9150509250925092565b6000806000806080858703121561392a57600080fd5b600061393887828801613544565b945050602061394987828801613544565b935050604061395a8782880161384b565b925050606085013567ffffffffffffffff81111561397757600080fd5b613983878288016136aa565b91505092959194509250565b600080604083850312156139a257600080fd5b60006139b085828601613544565b92505060206139c185828601613641565b9150509250929050565b600080604083850312156139de57600080fd5b60006139ec85828601613544565b92505060206139fd8582860161366b565b9150509250929050565b60008060408385031215613a1a57600080fd5b6000613a2885828601613544565b9250506020613a398582860161384b565b9150509250929050565b6000806000806101808587031215613a5a57600080fd5b6000613a6887828801613544565b9450506020613a798782880161384b565b9350506040613a8a878288016137ea565b925050610140613a9c878288016135cd565b91505092959194509250565b600060208284031215613aba57600080fd5b6000613ac884828501613656565b91505092915050565b60008060408385031215613ae457600080fd5b6000613af28582860161366b565b925050602083013567ffffffffffffffff811115613b0f57600080fd5b613b1b858286016136fe565b9150509250929050565b600080600060608486031215613b3a57600080fd5b6000613b488682870161366b565b935050602084013567ffffffffffffffff811115613b6557600080fd5b613b71868287016136fe565b925050604084013567ffffffffffffffff811115613b8e57600080fd5b613b9a868287016136aa565b9150509250925092565b600060208284031215613bb657600080fd5b6000613bc484828501613680565b91505092915050565b600060208284031215613bdf57600080fd5b6000613bed84828501613695565b91505092915050565b6000806101408385031215613c0a57600080fd5b6000613c18858286016137ea565b925050610100613c2a858286016135cd565b9150509250929050565b600060208284031215613c4657600080fd5b6000613c548482850161384b565b91505092915050565b6000613c698383614238565b60208301905092915050565b6000613c818383614256565b60208301905092915050565b613c96816147aa565b82525050565b613ca58161472c565b82525050565b613cb4816146ae565b613cbe81846146f4565b9250613cc982614699565b8060005b83811015613cfa578151613ce18782613c5d565b9650613cec836146dc565b925050600181019050613ccd565b505050505050565b613d0b816146ae565b613d1581846146ff565b9250613d2082614699565b8060005b83811015613d51578151613d388782613c75565b9650613d43836146dc565b925050600181019050613d24565b505050505050565b613d62816146a3565b613d6c81846146e9565b9250613d778261468f565b8060005b83811015613da8578151613d8f8782613c5d565b9650613d9a836146cf565b925050600181019050613d7b565b505050505050565b613db9816146a3565b613dc381846146ff565b9250613dce8261468f565b8060005b83811015613dff578151613de68782613c75565b9650613df1836146cf565b925050600181019050613dd2565b505050505050565b613e108161473e565b82525050565b613e1f8161474a565b82525050565b6000613e30826146b9565b613e3a818561470a565b9350613e4a8185602086016147ef565b613e538161482c565b840191505092915050565b6000613e69826146c4565b613e73818561471b565b9350613e838185602086016147ef565b613e8c8161482c565b840191505092915050565b6000613ea4600f8361471b565b91507f496e76616c6964206164647265737300000000000000000000000000000000006000830152602082019050919050565b6000613ee460148361471b565b91507f546f6b656e20616c7265616479206578697374730000000000000000000000006000830152602082019050919050565b6000613f2460148361471b565b91507f546f6b656e20646f6573206e6f742065786973740000000000000000000000006000830152602082019050919050565b6000613f64601f8361471b565b91507f50726f6f66206f66206f776e657273686970206973206e6f742076616c6964006000830152602082019050919050565b6000613fa460148361471b565b91507f436f6e747261637420697320756e7061757365640000000000000000000000006000830152602082019050919050565b6000613fe460318361471b565b91507f4f776e6572736869702063616e6e6f74207472616e73666572656420746f206160008301527f20636f6e747261637420616464726573730000000000000000000000000000006020830152604082019050919050565b600061404a60008361471b565b9150600082019050919050565b6000614064601a8361471b565b91507f436f6e7472616374204f776e65722069732072657175697265640000000000006000830152602082019050919050565b60006140a460158361471b565b91507f43616c6c6572206e6f7420617574686f726973656400000000000000000000006000830152602082019050919050565b60006140e460128361471b565b91507f436f6e74726163742069732070617573656400000000000000000000000000006000830152602082019050919050565b6000614124601c8361471b565b91507f476976656e204164647265737320697320746f6b656e204f776e6572000000006000830152602082019050919050565b600061416460168361471b565b91507f536f6c7574696f6e206973206e6f7420756e69717565000000000000000000006000830152602082019050919050565b6040820160008201516141ad6000850182614238565b5060208201516141c06020850182614238565b50505050565b6080820160008201516141dc6000850182613d59565b5060208201516141ef6040850182613d59565b50505050565b6101008201600082015161420c6000850182614197565b50602082015161421f60408501826141c6565b50604082015161423260c0850182614197565b50505050565b614241816147a0565b82525050565b614250816147a0565b82525050565b61425f816147a0565b82525050565b614276614271826147a0565b614822565b82525050565b6000614288828a614265565b6020820191506142988289614265565b6020820191506142a88288613db0565b6040820191506142b88287613db0565b6040820191506142c88286614265565b6020820191506142d88285614265565b6020820191506142e88284613d02565b60408201915081905098975050505050505050565b60006020820190506143126000830184613c9c565b92915050565b600060208201905061432d6000830184613c8d565b92915050565b60006080820190506143486000830187613c8d565b6143556020830186613c9c565b6143626040830185614247565b81810360608301526143748184613e25565b905095945050505050565b60006040820190506143946000830185613c9c565b6143a16020830184614247565b9392505050565b60006020820190506143bd6000830184613e07565b92915050565b60006020820190506143d86000830184613e16565b92915050565b600060208201905081810360008301526143f88184613e5e565b905092915050565b6000602082019050818103600083015261441981613e97565b9050919050565b6000602082019050818103600083015261443981613ed7565b9050919050565b6000602082019050818103600083015261445981613f17565b9050919050565b6000602082019050818103600083015261447981613f57565b9050919050565b6000602082019050818103600083015261449981613f97565b9050919050565b600060208201905081810360008301526144b981613fd7565b9050919050565b600060208201905081810360008301526144d98161403d565b9050919050565b600060208201905081810360008301526144f981614057565b9050919050565b6000602082019050818103600083015261451981614097565b9050919050565b60006020820190508181036000830152614539816140d7565b9050919050565b6000602082019050818103600083015261455981614117565b9050919050565b6000602082019050818103600083015261457981614157565b9050919050565b60006101408201905061459660008301856141f5565b6145a4610100830184613cab565b9392505050565b60006020820190506145c06000830184614247565b92915050565b6000604051905081810181811067ffffffffffffffff821117156145e957600080fd5b8060405250919050565b600067ffffffffffffffff82111561460a57600080fd5b602082029050919050565b600067ffffffffffffffff82111561462c57600080fd5b602082029050919050565b600067ffffffffffffffff82111561464e57600080fd5b601f19601f8301169050602081019050919050565b600067ffffffffffffffff82111561467a57600080fd5b601f19601f8301169050602081019050919050565b6000819050919050565b6000819050919050565b600060029050919050565b600060029050919050565b600081519050919050565b600081519050919050565b6000602082019050919050565b6000602082019050919050565b600081905092915050565b600081905092915050565b600081905092915050565b600082825260208201905092915050565b600082825260208201905092915050565b600061473782614780565b9050919050565b60008115159050919050565b6000819050919050565b60007fffffffff0000000000000000000000000000000000000000000000000000000082169050919050565b600073ffffffffffffffffffffffffffffffffffffffff82169050919050565b6000819050919050565b60006147b5826147bc565b9050919050565b60006147c7826147ce565b9050919050565b60006147d982614780565b9050919050565b82818337600083830152505050565b60005b8381101561480d5780820151818401526020810190506147f2565b8381111561481c576000848401525b50505050565b6000819050919050565b6000601f19601f8301169050919050565b6148468161472c565b811461485157600080fd5b50565b61485d8161473e565b811461486857600080fd5b50565b6148748161474a565b811461487f57600080fd5b50565b61488b81614754565b811461489657600080fd5b50565b6148a2816147a0565b81146148ad57600080fd5b5056fea365627a7a7231582053b024cf8a6a142c0a87f7471cca8680c4858791c4e896fc4fb8be81bfa338386c6578706572696d656e74616cf564736f6c6343000510004068747470733a2f2f73332d75732d776573742d322e616d617a6f6e6177732e636f6d2f756461636974792d626c6f636b636861696e2f63617073746f6e652f",
  "source": "pragma solidity >=0.4.21 <0.6.0;\npragma experimental ABIEncoderV2;\n\nimport './SquareVerifier.sol';\nimport './ERC721Mintable.sol';\n\n// TODO define a contract call to the zokrates generated solidity contract <Verifier> or <renamedVerifier>\n// TODO define another contract named SolnSquareVerifier that inherits from your ERC721Mintable class\ncontract SolnSquareVerifier is ERC721MintableComplete, Verifier {\n    \n\n\n    // TODO define a solutions struct that can hold an index & an address\n    struct Solution {\n        uint256 index;\n        address solAddress;\n        bool minted;\n    }\n\n    // TODO define an array of the above struct\n    Solution[] solutions;\n\n    // TODO define a mapping to store unique solutions submitted\n    mapping(bytes32=>Solution) uniqueSolutions;\n\n    // TODO Create an event to emit when a solution is added\n    event SolutionAdded(address solutionAddress, uint256 solutionIndex);\n\n    Verifier private zkContract;\n    \n    constructor(address contractAddress, string memory name, string memory symbol)\n        ERC721MintableComplete(name, symbol)\n        public\n    {\n        zkContract  = Verifier(contractAddress);\n    }  \n\n\n    // TODO Create a function to add the solutions to the array and emit the event\n    function addSolution(address owner, bytes32 solHash) public {\n        uint256 newIndex = solutions.length;\n\n        Solution memory newSol = Solution(newIndex, owner, false);\n        solutions.push(newSol);\n        uniqueSolutions[solHash] = newSol;\n        \n        emit SolutionAdded(owner, newIndex);\n    }\n\n\n\n    // TODO Create a function to mint new NFT only after the solution has been verified\n    //  - make sure the solution is unique (has not been used before)\n    //  - make sure you handle metadata as well as tokenSuplly\n    function mintVerifiedNFT(address tokenOwner, uint tokenId, Proof memory proof, uint[2] memory input) public {\n        require(zkContract.verifyTx(proof, input), \"Proof of ownership is not valid\");\n        \n        bytes32 solHash = getSolutionHash(proof, input);\n        require(uniqueSolutions[solHash].solAddress == address(0), \"Solution is not unique\");\n        \n        addSolution(tokenOwner, solHash);\n        mint(tokenOwner, tokenId);\n        uniqueSolutions[solHash].minted = true;\n    }\n\n    function getSolutionHash(Proof memory proof, uint[2] memory input) pure public returns (bytes32 solHash) {\n        solHash = keccak256(abi.encodePacked(\n            proof.a.X,\n            proof.a.Y, \n            proof.b.X, \n            proof.b.Y, \n            proof.c.X,\n            proof.c.Y,\n            input\n        ));\n    }\n  \n}\n\n\n\n\n\n\n\n\n\n\n\n\n\n\n\n\n\n\n\n\n\n\n\n\n\n",
  "sourcePath": "/home/cryptonari/Documents/udacity/BDND/05_RealEstateMarketPlace/BDND_05_RealEstateMarketPlace/eth-contracts/contracts/SolnSquareVerifier.sol",
  "compiler": {
    "name": "solc",
    "version": "0.5.16+commit.9c3226ce.Emscripten.clang"
  },
  "schemaVersion": "3.4.3",
  "updatedAt": "2022-02-26T12:38:05.582Z",
  "devdoc": {
    "methods": {
      "isApprovedForAll(address,address)": {
        "details": "Tells whether an operator is approved by a given owner",
        "params": {
          "operator": "operator address which you want to query the approval of",
          "owner": "owner address which you want to query the approval of"
        },
        "return": "bool whether the given operator is approved by the given owner"
      },
      "setApprovalForAll(address,bool)": {
        "details": "Sets or unsets the approval of a given operator An operator is allowed to transfer all tokens of the sender on their behalf",
        "params": {
          "approved": "representing the status of the approval to be set",
          "to": "operator address to set the approval"
        }
      },
      "supportsInterface(bytes4)": {
        "details": "implement supportsInterface(bytes4) using a lookup table"
      },
      "tokenByIndex(uint256)": {
        "details": "Gets the token ID at a given index of all the tokens in this contract Reverts if the index is greater or equal to the total number of tokens",
        "params": {
          "index": "uint256 representing the index to be accessed of the tokens list"
        },
        "return": "uint256 token ID at the given index of the tokens list"
      },
      "tokenOfOwnerByIndex(address,uint256)": {
        "details": "Gets the token ID at a given index of the tokens list of the requested owner",
        "params": {
          "index": "uint256 representing the index to be accessed of the requested tokens list",
          "owner": "address owning the tokens list to be accessed"
        },
        "return": "uint256 token ID at the given index of the tokens list owned by the requested address"
      },
      "totalSupply()": {
        "details": "Gets the total amount of tokens stored by the contract",
        "return": "uint256 representing the total amount of tokens"
      }
    }
  },
  "userdoc": {
    "methods": {}
  }
}